:100000000C94EC000C9433010C944E010C943301CD
:100010000C9433010C9433010C941C1C0C9433018C
:100020000C9433010C9433010C9433010C94330180
:100030000C9433010C9433010C94731C0C94330115
:100040000C9433010C9433010C9433010C94330160
:100050000C9433010C9433010C9433010C94330150
:100060000C9433010C943301530054005500560096
:100070005F006000610000005C005D005E005700F2
:1000800059005A005B000000620000006300580045
:1000900055005600000009023B00020100A0320991
:1000A00004000001030101000921010100012240B7
:1000B0000007058103080001090401000103000095
:1000C00000092101010001227B00070583030800CC
:1000D000011201100100000008626B6917010001A4
:1000E000020001120344004900530043004900503C
:1000F00000410044000000200363006F00730065AE
:10010000007900660061006E006E00690074007581
:10011000007400740069000000040309040501096B
:1001200002A10185020901A100050919012908158B
:100130000025019508750181020501093009311575
:1001400081257F95027508810609381581257F95DF
:100150000175088106050C0A38021581257F950175
:1001600075088106C0C005010980A1018503190138
:100170002AB700150126B700950175108100C0054A
:100180000C0901A101850419012AA002150126A06C
:1001900002950175108100C005010906A10105073E
:1001A00019E029E7150025019508750181029501DF
:1001B000750881030507190029FF150026FF009522
:1001C0000675088100050819012905950575019135
:1001D00002950175039103C011241FBECFEFD8E033
:1001E000DEBFCDBF04B603FE27C080918F03909180
:1001F0009003A0919103B09192038730904BA74058
:10020000B04BD1F410928F0310929003109291038F
:100210001092920314BE84B7877F84BF0FB6F89400
:10022000A8958091600088618093600010926000C2
:100230000FBEE0E0F8E3099511E0A0E0B1E0ECEAE0
:10024000F0E402C005900D92AC38B107D9F723E075
:10025000ACE8B1E001C01D92AF38B207E1F70E94EF
:10026000EB120C9436200C940000A82FB92F80E0DC
:1002700090E041E050EA609530E009C02D9182277E
:100280009795879510F084279527305EC8F36F5FA8
:10029000A8F30895EADF8D939D930895CF93CFB788
:1002A000CF93DF93C3954B9BE9F74B9B10C04B9BC0
:1002B0000EC04B9B0CC04B9B0AC04B9B08C04B9B7A
:1002C00006C0C0916603C395C09366038EC06F934A
:1002D000C0916503DD27C359DC4F2F9365E54B9B28
:1002E00003C02F916F91E1CF0F931F934F9320E0A5
:1002F00040E15F9309B10C7003FB27F93F9350E095
:100300003BE039C01C7040642F77012F5F5F1EC037
:10031000406819B11C702F7752501FC0406409B15A
:100320002F770C70D1F15F5F00C023C0406219B11C
:100330002F771C7091F15F5F00C025C00C701027F3
:10034000515012F45D5F0000115027952C3F19B1F8
:10035000C8F61C700127015027952C3FC8F642278C
:10036000499309B10C7010274F73115027952C3FFA
:10037000A8F64695469519B11C7079F001270150F1
:1003800027952C3F98F66B5A60F3315009B1B0F6BF
:1003900000C012E01CBB00271CC03B503195C31BA2
:1003A000D04012E01CBB0881033C21F10B3411F159
:1003B000209162031981110F1213EDCF4A81441F5E
:1003C000093679F10D3211F0013E29F74F7009F02D
:1003D000042F00936B033F915F914F911F910F91F9
:1003E0002F916F91CCB3C1FD5DCFDF91CF91CFBF86
:1003F000CF91189520916B03222369F31091690323
:10040000112309F049C034300AF448C0309369031D
:1004100020936403109165033BE0311B3093650327
:100420003DC0009169030130BCF50AE54F7049F405
:1004300030911F0134FD33C000931F01CFE3D3E09F
:1004400032C0433059F0443091F030914A0334FDCA
:1004500026C000934A03CBE4D3E025C03091830348
:1004600034FD1DC000938303C4E8D3E01CC0309169
:10047000560334FD14C000935603C7E5D3E013C000
:10048000052710E000C000000BB91AC0052710E0D6
:10049000221F1DC010E021C04AE502C032ED432FEB
:1004A000C4E1D0E032E01AB11C605B9A0BB11AB91A
:1004B0005CE020E865E320FF05270BB92795179539
:1004C0001C3FF0F66695B8F7B1F720FF05270BB98A
:1004D000279517951C3FD0F62795179517FF0527E9
:1004E00000001C3F0BB9B0F629913A9519F7037F2C
:1004F00010916A03110FC651D0400BB911F010933F
:10050000620312E01CBB08601AB1137F402F437FC7
:1005100054E05A95F1F70BB91AB94BB95CCF81E0A9
:10052000089581E008950C94910208950C94950229
:100530001F93CF93DF9300D000D00F92CDB7DEB7DB
:1005400049835A836B8330918E0189819A8131115D
:100550001DC06623B9F02223A9F00E94ED08182FD0
:10056000682F89819A810E949A0869817A81812FF6
:100570000F900F900F900F900F90DF91CF911F91E0
:100580000C94540F0E94C608182FEFCF0E94ED085C
:1005900069817A81EDCFFC01262F868197810097B2
:1005A00039F4408151816281738184810C94980275
:1005B0000895CF93DF93EC0161E00E94CB02BE016E
:1005C000DF91CF910C945319CF93DF93EC0160E04E
:1005D0000E94CB02BE01DF91CF910C9496020E9443
:1005E0007B110E9462030C94A0110E940F190C94BD
:1005F000A31108950E9439070E94F9022FEF84E3A6
:100600009CE0215080409040E1F700C000000C9435
:10061000971C0F931F93CF93DF938C0161E00E948F
:10062000CB02EC01B8010E9493028823A9F1B80122
:10063000CE010E94ED15882379F1B801CE010E9408
:100640003F16882349F1B801CE010E946217882322
:1006500019F1F8018281882361F0CB35FDE5DF07D0
:1006600021F170F4C115ECE5DE07A1F0CF3DDC45CA
:10067000C9F0C801DF91CF911F910F910C948F02A7
:10068000CC358DE5D807A1F0CD35DD4591F70E9439
:10069000030DEFCF0E94FA0280E0DF91CF911F910E
:1006A0000F9108950E947A0EF7CF0E940C0DE1CFB2
:1006B0000E940F0DDECF08950C945B0381E0089536
:1006C0000C945E030895CF93C82F0E945C038C2F77
:1006D000CF910C946003CF93DF93CDB7DEB72D9706
:1006E0000FB6F894DEBF0FBECDBF49875A876B8720
:1006F0007C878D8761110E94320D1D821E821F82B0
:10070000188685E0FE013996DE01119601900D9262
:100710008A95E1F78C819D81892B99F429813A8111
:100720004B815C816D817E818F8198850E942C0C2C
:100730002D960FB6F894DEBF0FBECDBFDF91CF91DF
:10074000089589819A8189238F3F41F3CE010196D3
:100750000E94D9028111E2CFEBCFFC01808191810F
:100760000C942F09CF93C82F882309F48BC08238AB
:10077000C1F40E94251B81FD85C089E30E94CC0C39
:100780000E94620D2FEF81EE94E021508040904056
:10079000E1F700C0000089E30E94D30CCF910C94D4
:1007A000620D8338A1F40E94251B80FD6BC083E598
:1007B0000E94CC0C0E94620D2FEF81EE94E021503C
:1007C00080409040E1F700C0000083E5E5CF843829
:1007D000A1F40E94251B82FD55C087E40E94CC0C29
:1007E0000E94620D2FEF81EE94E0215080409040F6
:1007F000E1F700C0000087E4CFCF8CEF8C0F813A87
:1008000090F46C2F80910701909108010E94881B41
:10081000882329F08C2F0E94D30C0E94620D8C2F0C
:100820000E94CC0CBBCF80E28C0F883048F4C7709C
:1008300081E001C0880FCA95EAF70E94150DAECF7E
:10084000EBE5EC0FE33040F4F0E0E25BFE4F80813B
:1008500090E0CF910C944A1BE8E5EC0FE73150F49F
:10086000F0E0EE0FFF1FE05EFE4F80819181CF919F
:100870000C94601BCD3E30F08C2F0E947913CF91E9
:100880000C944C14CF910895882309F452C08238F7
:1008900071F40E94251B81FF4CC089E30E94CC0C9F
:1008A0000E94620D89E30E94D30C0C94620D833880
:1008B00059F40E94251B80FF3CC083E50E94CC0CAC
:1008C0000E94620D83E5EFCF843859F40E94251B06
:1008D00082FF2FC087E40E94CC0C0E94620D87E447
:1008E000E2CF9CEF980F913AF0F290E2980F983097
:1008F00050F4877091E001C0990F8A95EAF7892F2B
:100900000E941B0DD2CF9BE5980F933020F490E00E
:1009100080E00C944A1B98E5980F973120F490E002
:1009200080E00C94601B8D3E20F00E94D3130C9449
:100930004C1408951F93CF93DF93182FEB010E945F
:10094000B203209731F4812FDF91CF911F910C9446
:1009500044048FE99FE00197F1F700C00000219760
:10096000F0CF70E060E0893311F460E570E00C9442
:100970009A04882321F00E94150D0C94620D0895AD
:10098000882321F00E941B0D0C94620D0895BF92E4
:10099000CF92DF92EF92FF920F931F93CF93DF934B
:1009A0006C01D62FC72FFC011281058102950F70B3
:1009B0000E94EA0CE82E8823A1F0E12E112389F091
:1009C0008C2F807F803429F080E28D0FE12C8830DD
:1009D00040F082E00E94B30D0E94EA0C91E0E82E04
:1009E000E926BC2EB2949FE0B922EB2DF0E0E85C42
:1009F000FF4D0C94CD1F0C2F0F70C07F11F002958E
:100A0000007F1123A9F0002359F080E28D0F883078
:100A100010F0D11109C0802F0E94150D0E94620DA7
:100A20008D2F0E94B20314C0802F0E94250DF6CF97
:100A30008D2F0E944404002359F080E28D0F8830EE
:100A400010F0D1112CC0802F0E941B0D0E94620D4E
:100A50002B2D2850330B2430310520F40E94251B08
:100A60000E946303EE2009F49EC10E94E60C80FD03
:100A70009AC1F60112820E94E00C0E94FE07C60194
:100A80000E94FB060E94E00CDF91CF911F910F9115
:100A9000FF90EF90DF90CF90BF900C941F08802FB5
:100AA0000E942B0DD3CFFC2FFF70FF2EC07FC032D2
:100AB00019F0F29480EFF822DD2369F0D13049F18A
:100AC000112391F1002351F1F601858180FFA8CF18
:100AD0008F70858323C0112381F0011106C00E940D
:100AE000450D8F290E94B904B3CF0130C1F70E9490
:100AF000450D8F290E944B0DABCF011106C00E94FE
:100B0000580D8F2D0E94C004A3CF013009F4A0CF4F
:100B1000F6CF112329F0063008F09ACF8F2DE2CFBF
:100B2000053008F095CFEDCF002359F3D93349F4C0
:100B3000FFEF27EE33E0F15020403040E1F700C0F6
:100B400000008D2F0E94440483CF8C2F86958695BC
:100B5000837069F0813009F07BCF8D2F9C2F9370CB
:100B6000111102C090E080E00E94601B71CF8D2FB8
:100B70009C2F9370111102C090E080E00E944A1BEC
:100B800067CF8D2F112329F00E9479130E944C14F6
:100B90005FCF0E94D313FACF8C2F837009F041C02E
:100BA000111156CF4D2F429546954770440F440F73
:100BB0000D2F0F7010E030E020E0042E04C0000F75
:100BC000111F221F331F0A94D2F760E070E0CB019F
:100BD000D4FF0FC06FE070E080E090E004C0660FCB
:100BE000771F881F991F4A95D2F760957095809559
:100BF0009095C695C695C370602B712B822B932B55
:100C0000C23049F058F4C13019F00E94B00720CF2B
:100C10000E949E071DCF0E94C2071ACF0E949C0708
:100C200017CF8695112311F08C2F8170882309F43A
:100C30000FCF4D2F429546954770440F440F0D2F0F
:100C40000F7010E030E020E0042E04C0000F111FF0
:100C5000221F331F0A94D2F760E070E0CB01D4FF6B
:100C60000FC06FE070E080E090E004C0660F771F77
:100C7000881F991F4A95D2F7609570958095909539
:100C8000C695C695C370602B712B822B932BC230F7
:100C900049F058F4C13019F00E947508D9CE0E946D
:100CA0006308D6CE0E948708D3CE0E94D807D0CE44
:100CB000CF70112329F08C2F0E94FE078D2F12CFA9
:100CC0008D2F0E94C0048C2F0E941F08C1CED23FDE
:100CD00089F160F4D03FC9F0D13F29F1112309F423
:100CE00042C001119DCE8C2F8F7121C0D33F39F1AD
:100CF000D43FA1F7112369F1CF718C2F0E94FE0719
:100D000063E08C2F0E94980DA3CE112341F0053093
:100D100008F09ECE8C2F8F710E94420899CE06302B
:100D200008F096CEF7CF8C2F8F71112369F20E94B5
:100D3000FE078ECE8C2F8F711123C9F3C5CF1123DF
:100D400029F08C2F8F710E94E90782CE0E94E40760
:100D50007FCE81E00E94B30D023008F479CE82E0AC
:100D60000E94B30D75CE002359F0D93309F0E9CEB6
:100D70008FEF97EEE3E081509040E040E1F7DFCE67
:100D80008C2F8F71A1CF4C2F4F706D2FC6010E94F9
:100D9000500F0E945D095CCE4C2F4F706D2FC60125
:100DA0000E94530F55CEDF91CF911F910F91FF906D
:100DB000EF90DF90CF90BF9008950F931F93CF9344
:100DC000DF93EC018E819F81009779F00E94700F74
:100DD0008C010E9499080E949B07B801CE01DF9107
:100DE000CF911F910F910C94C704688179818A81FA
:100DF0000E943909EDCFCF93DF93EC018B819C8169
:100E0000892B29F08881998189238F3F59F4DF91BB
:100E1000CF910895CE010E94DD06CE01DF91CF91E2
:100E20000C94E402CE010E9409038111F3CF0E94C9
:100E3000EA0C882361F38A81882349F382E0DF91F9
:100E4000CF910C94B30D90E080E00E944A1B90E09B
:100E500080E00E94601B0E94320D0E94420D0E94A1
:100E6000620D0E9473150C944C140E94DA0C0C94C1
:100E700023070E94220D0C943507E92FE295EF70AD
:100E8000E250EE3070F4F0E0E85BFF4D0C94CD1FC3
:100E9000803F19F020F4883E20F481E00895843FDB
:100EA000E1F380E00895883EC0F3813FD1F7F5CFAC
:100EB00093FB882780F90895FC018681978100972C
:100EC00021F00E94700F0C943D07808191810E9457
:100ED0002F09F9CFCF93DF9300D000D00F92CDB779
:100EE000DEB70F900F900F900F900F90DF91CF9182
:100EF0000895CF93DF93CDB7DEB728970FB6F89458
:100F0000DEBF0FBECDBF28960FB6F894DEBF0FBE72
:100F1000CDBFDF91CF91089508950C948C070E9466
:100F20008D076093A2017093A3018093A401909315
:100F3000A5010C94230708950C948F070F931F931A
:100F40000091A2011091A3012091A4013091A5016B
:100F5000602B712B822B932B1F910F910C948F0779
:100F60000F931F930091A2011091A3012091A4015E
:100F70003091A50160237123822393231F910F9148
:100F80000C948F070F931F930091A2011091A3015E
:100F90002091A4013091A501602771278227932712
:100FA0001F910F910C948F070C948C070C94D4070D
:100FB0000E94D60760939E0170939F018093A001C9
:100FC0009093A1010C94230760E070E0CB010C9496
:100FD000D8070F931F9341E050E060E070E08A0172
:100FE0009B0104C0000F111F221F331F8A95D2F7E7
:100FF000C901B8011F910F910C94D8070F931F934B
:1010000041E050E060E070E004C0440F551F661FEF
:10101000771F8A95D2F780919E0190919F01A091B0
:10102000A001B091A1018A019B01082B192B2A2B49
:101030003B2BC901B8011F910F910C94D8070F9356
:101040001F9341E050E060E070E004C0440F551F82
:10105000661F771F8A95D2F7CB01BA01609570950C
:101060008095909500919E0110919F012091A00183
:101070003091A10160237123822393231F910F914B
:101080000C94D8070F931F9341E050E060E070E0AC
:1010900004C0440F551F661F771F8A95D2F78091B1
:1010A0009E0190919F01A091A001B091A1018A01A0
:1010B0009B01082719272A273B27C901B8011F913F
:1010C0000F910C94D8070F931F9300919E011091DC
:1010D0009F012091A0013091A101602B712B822BE7
:1010E000932B1F910F910C94D8070F931F9300918E
:1010F0009E0110919F012091A0013091A1016023D8
:101100007123822393231F910F910C94D8070F937F
:101110001F9300919E0110919F012091A001309199
:10112000A10160277127822793271F910F910C94AB
:10113000D8070895990F990F890F982F977041E05C
:1011400001C0440F9A95EAF786958695869595E0B5
:10115000899FF0011124E157FE4F30E020E070E05C
:101160005191DF011197CB01022E02C09695879510
:101170000A94E2F7817081958527842385278C93D3
:101180002F5F3F4F2530310559F70895990F990F7B
:10119000890F982F977086958695869525E0829F72
:1011A000F0011124E157FE4F50E040E080E0219132
:1011B00030E0092E02C0369527950A94E2F7217097
:1011C0003327042E01C0220F0A94EAF7822B4F5FC7
:1011D0005F4F4530510559F70895BF92CF92DF9286
:1011E000EF92FF920F931F93CF93DF938C01C090E8
:1011F0009E01D0909F01E090A001F090A10180910C
:10120000A2019091A301A091A401B091A501C82AC7
:10121000D92AEA2AFB2ACFE1D0E0BC2ED701C601A9
:101220000C2E04C0B695A795979587950A94D2F78A
:1012300080FD0EC0219788F7B12C8B2DDF91CF91C7
:101240001F910F91FF90EF90DF90CF90BF90089586
:10125000B8018C2F0E948310019761F3EECFCF93DA
:10126000DF93EC010E94ED08BE01DF91CF910C9459
:1012700083101F93CF93DF93EB0190918E019923FD
:1012800031F0CB01DF91CF911F910C942F0988236E
:1012900079F0CB010E94ED08182F682FCE010E9433
:1012A0009A08BE01812FDF91CF911F910C9483107A
:1012B000CB010E94C608182FF4CFEF92FF920F9334
:1012C0001F93CF93DF938C01892B81F0F12CEE24B7
:1012D000E394E8012196F8018491843770F4843016
:1012E00008F05FC08130B1F08230A1F1DF91CF9181
:1012F0001F910F91FF90EF900895853709F44CC02E
:1013000008F43DC09CE7980F903780F78F770E94D4
:10131000440449C00E5F1F4FFE01849190E2980F74
:10132000983060F48770FE2D01C0FF0F8A95EAF7B0
:101330008F2F0E94350D0E94620D02C00E94B203E1
:101340008F2D815030F2EFE9FFE03197F1F700C0C7
:101350000000F7CF0E5F1F4FFE01849190E2980FBF
:10136000983050F48770FE2D01C0FF0F8A95EAF780
:101370008F2F0E943B0DDFCF0E944404E1CF0E5F10
:101380001F4FFE01C491C150D8F28FE99FE0019731
:10139000F1F700C00000F7CF0E5F1F4FFE01F49081
:1013A000CFCF0E94B2038E01CBCFCF93DF93C091FA
:1013B000A6018091A7018C1303C0DF91CF910895FE
:1013C000D0E0FE0183E0EE0FFF1F8A95E1F7E855BC
:1013D000FE4F2081318142815381648175818681F4
:1013E00097810E9479072196C770E3CF2091E80189
:1013F0003091E9014091EA015091EB016091EC01DB
:101400007091ED018091EE019091EF010C947907BC
:10141000CF93DF938091ED01807FA1F48091EA0169
:10142000882381F08091A601C091A7016091E80115
:101430007091E901A091EB01B091EC01D62FD72377
:10144000C81303C0DF91CF91089590E0109711F079
:10145000DF3F19F401968770F3CF9C0143E0220F20
:10146000331F4A95E1F7F901E855FE4F41814713D3
:10147000F1CF40814613EECF42814111EBCF438142
:1014800054814A1B5B0B483C510520F78091ED01CC
:101490008F7080618093ED01F901E355FE4F8081EB
:1014A0008F708061808388EE91E00E94FB06DF915F
:1014B000CF910C94D509AF92BF92CF92DF92EF9269
:1014C000FF920F931F93CF93DF93CDB7DEB765974E
:1014D0000FB6F894DEBF0FBECDBF8C0185E0F801DA
:1014E000DE01519601900D928A95E1F7F801E280B4
:1014F00048EEC42E41E0D42E6091EB017091EC01D6
:101500006115710509F48CC19091E8012091E90100
:10151000892F82238F3F09F483C140815181A380A9
:10152000B480F090EA01F501E61BF70BFF2009F407
:101530002CC18091ED01382F307FE83CF10508F097
:10154000D6C0311183C0FE2C25132DC094132BC09F
:101550006091EE017091EF01F801268137816217E9
:10156000730709F5E1101FC08F7080618093ED0152
:101570000E94F609C6010E94FB068091ED01F80168
:1015800085838F2D65960FB6F894DEBF0FBECDBF55
:10159000DF91CF911F910F91FF90EF90DF90CF904F
:1015A000BF90AF900895AB2829F0842F85238F3FFB
:1015B00009F04FC180E0F82FF170DF2E80FF3CC0B2
:1015C0008091A6012091A701821315C0498B5A8BE7
:1015D00089899A890E942F09292F22952F702230FC
:1015E000F8F0243020F59F70F9F0F8019581907F94
:1015F000D9F4D12C1FC090E0FC0133E0EE0FFF1FA7
:101600003A95E1F7E855FE4F3181351306C0308138
:10161000341303C032813E110FC001968770D4CFBE
:101620009F7011F0882329F3805E883010F3C80181
:101630000E94FB06FD2CA5CFEE2009F4A2CF8091DD
:10164000ED0181608093ED01F12C9BCF25131DC02E
:1016500094131BC04091EE015091EF01F8012681D7
:1016600037814217530789F4E1100FC08583C80101
:101670000E94FB0688E0F801A8EEB1E001900D920F
:101680008A95E1F70E94F6097CCFC8010E945C07A9
:10169000882349F1EE2039F18091ED018032A0F0EC
:1016A0002091E8013091E9013A8729871B86BD86A0
:1016B000AC868E878091EE019091EF01988B8F8799
:1016C000CE0109960E94FB0688E0F801A8EEB1E081
:1016D00001900D928A95E1F70E94080A0E94F6098E
:1016E000FF24F3944ECFC8010E94FB06F9CF3111BD
:1016F00013C07A2DBD8AAC8A6E2D8D890E946A072F
:1017000088EE91E00E94FB0688E0F60111928A952E
:10171000E9F70E94F60998CF251318C0941316C054
:101720004091EE015091EF01F80126813781421777
:10173000530761F4E1100AC08583C8010E94FB06CB
:1017400088E0F60111928A95E9F71BCFC8010E9443
:101750005C07882341F2EE2031F28091ED01803266
:1017600008F4B2CF2091E8013091E9013A8329834E
:101770001B82BD82AC828E838091EE019091EF013D
:1017800098878F83CE0101969DCFE83CF105D8F56F
:10179000FE2CEE2009F4A7CF251327C0941325C0F3
:1017A0002091EE013091EF01F80186819781281791
:1017B0003907D9F49091ED0190FD0EC0907F61F052
:1017C0008091ED018583903F09F451CF982F907F50
:1017D000905F8F70892B4ACF88E0F801A8EEB1E0C6
:1017E00001900D928A95E1F7CCCEC8010E945C076A
:1017F00081116ACF8091ED0181608093ED01C80174
:101800000E94FB06BECE7A2DBD8AAC8A6E2D8D89D4
:101810000E946A0788E0F60111928A95E9F732CFB3
:10182000EE2009F460CFC8010E945C07F82E8823DF
:1018300009F459CF88E0F801A8EEB1E001900D92CB
:101840008A95E1F788EE91E00E94AD030E94080AB4
:1018500019CF81E08E25AFCECF93DF93CDB7DEB722
:1018600060970FB6F894DEBF0FBECDBF29873A87C9
:101870004B875C876D877E878F87988BCE01099613
:101880000E945B0A8823D1F08C859D85892B39F0D5
:1018900029853A85822F83238F3F09F074C0809178
:1018A000A6019091A701891348C060960FB6F894DD
:1018B000DEBF0FBECDBFDF91CF91089588E0FE015E
:1018C0003996DE01119601900D928A95E1F78C858B
:1018D0009D85892B21F389859A8589238F3FF9F28C
:1018E000A091A701B0E0CD010196877099272091C2
:1018F000A6012817190671F40E9439071092A70152
:101900001092A60188E0E8EEF1E0DF011D928A95D1
:10191000E9F7C5CF93E0AA0FBB1F9A95E1F7A85549
:10192000BE4F98E0FE01319601900D929A95E1F735
:101930008093A7010E94D509B2CFB8E08B9FC00168
:10194000112488559E4F0E945B0A882309F4ADCF6D
:10195000E091A60128E0E29FF0011124E855FE4F36
:101960002081318142815381648175818681978193
:101970000E9479078091A60190E0019687709927CF
:101980008093A6018CCF4B855C856D857E858F8588
:1019900098890E94790783CF682F809107019091E1
:1019A00008010C94BE1B682F8091070190910801DB
:1019B0000C94C01B80910701909108010C94C21BEC
:1019C0008091F00185958595859508958091F00128
:1019D000877008959091F001977081E009F480E09C
:1019E00008959091300392FB222720F9281751F097
:1019F00080FB92F99093300380912F0390913003F4
:101A00000C94F60D08958091300382FB882780F9AD
:101A100091E089270C94F10C81E00C94F10C80E0AA
:101A20000C94F10C8091FC0108959091FC01892B9C
:101A30008093FC01089580959091FC0198239093E8
:101A4000FC0108951092FC0108959091FB01892BEF
:101A50008093FB01089580959091FB0198239093CA
:101A6000FB0108951092FB0108959091FA01892BD2
:101A70008093FA01089580959091FA0198239093AC
:101A8000FA0108951092FA0108958091F1010895E4
:101A900008950C94480D9091300392FD08C09091E8
:101AA000F101981721F08093F1010C94490D0895EC
:101AB0008091F101882329F01092F10180E00C94CB
:101AC000490D0895E0910701F09108018091FC0112
:101AD0008083E0910701F091080180819091FB01E2
:101AE000892B8083E0910701F0910801808190911A
:101AF000FA01892B80839091F101992381F0E09183
:101B00000701F09108018081892B80838091070172
:101B1000909108010E94761B81110E94580D8091BE
:101B20000701909108010C94311B08950C94950DB8
:101B30009091300392FD10C098E0899F900111248C
:101B4000622B6093F0010E94FE078091F001859561
:101B5000859585950C94960D0C94FE071092F001D6
:101B600080E00C94960D9091F001809589238093EC
:101B7000F001282F277039F4282F082E000C330B82
:101B80009217130621F49091300392FF07C08595B8
:101B9000859585950E941F080C94AE0D08956FEFF2
:101BA0007FEF90E080E00C94202090E080E00E94A5
:101BB000FC1F21E0893E9E4F09F020E0822F08950E
:101BC00082E090E00C94F41F83E090E00C94F41F0A
:101BD000CF9384E090E00E94F41FC82F82E290E04F
:101BE0000E94F41F982F8C2FCF910895CF93C92F67
:101BF000682F84E090E00E9402206C2F82E290E047
:101C0000CF910C940220AB01BC018FE090E00C94CA
:101C10001420AB01BC0183E190E00C94142060E03F
:101C200070E0CB010C94090E60E070E0CB010E94E3
:101C3000030E0C940F0E69EE7EEF90E080E00E94A0
:101C4000202060E082E090E00E94022060E083E0DB
:101C500090E00E9402201092A2011092A301109223
:101C6000A4011092A50160E084E090E00E940220AF
:101C700060E082E290E00E94022060E085E090E077
:101C80000E94022060E086E090E00E9402206FEF58
:101C900087E090E00E94022040E050E0BA0188E036
:101CA00090E00E94142060E08DE090E00E9402200D
:101CB00040E050E0BA0188E190E00E94142060E02A
:101CC00087E190E00E94022040E050E0BA018CE100
:101CD00090E00E94142070E060E080E290E00E94BA
:101CE000202040E050E0BA0188E190E00E941420FA
:101CF0000C94140E0C941B0E682F8EE090E00C9444
:101D000002200E94581C609307027093080280937F
:101D1000090290930A026093030270930402809375
:101D20000502909306020895089508950C94940E68
:101D300008950C94980E81E691E10E94AC1C0E94DB
:101D4000950E0C94960E81E008950C94A30E0895C0
:101D500008950E94A70E0C94A80E0E94431C0E9496
:101D600051120C94990EAF92BF92CF92DF92EF92E4
:101D7000FF920F931F93CF93DF93CDB7DEB72A97D0
:101D80000FB6F894DEBF0FBECDBF0E946D12811159
:101D90000E94810E8EEFA82E81E0B82E10E000E0A8
:101DA000C02E802F0E94A511E82EF501F1905F0151
:101DB000F81609F44DC080910B0281FD0E94AB1111
:101DC0008F2D8E25D12CFF24F394982F9F21D9F1AC
:101DD0000E94A50E882399F0DE82CF82EF2081E059
:101DE00009F480E088870E944C1C8160782F9A87D4
:101DF00089874E815F8168858A850E946B03F8011F
:101E0000E250FE4F8081F826F0820E9467140E9403
:101E1000251B9091FD01891791F10E94251B80934C
:101E2000FD012A960FB6F894DEBF0FBECDBFDF913D
:101E3000CF911F910F91FF90EF90DF90CF90BF90C7
:101E4000AF900C946303D394FF0CF4E0DF12BDCF8A
:101E50000F5F1F4F0530110509F0A2CF8FEF898367
:101E60008A831B820E944C1C8160782F9D838C8307
:101E700049815A816B818D810E946B03C6CF2A965E
:101E80000FB6F894DEBF0FBECDBFDF91CF911F918B
:101E90000F91FF90EF90DF90CF90BF90AF9008959B
:101EA00090E080E008950895E72FF0E095E0899FA5
:101EB000E00DF11D1124EE0FFF1FEE0FFF1FE60FC7
:101EC000F11DEE0FFF1FE859FF4F85919491089582
:101ED000FC01EE0FFF1FEA56FF4F85919491089584
:101EE000CF93DF930E948710EC01811520E59207C4
:101EF00008F042C0811530E4930708F0BDC0883E69
:101F0000910528F5803E910508F09DC0883A91051D
:101F100088F4853A910508F08FC08130910509F465
:101F200092C0009709F48FC0049708F08CC0D0E0ED
:101F3000C0E089C08F3B910508F489C0805C91099D
:101F4000C03CD105A0F30E94680FEC017CC0811554
:101F5000904250F4C11581E0D80708F074C0CD3E1E
:101F6000D10528F3D0656FC0C11590E3D90708F0FB
:101F700079C0CE019F70E7CF811525E5920758F50E
:101F8000811534E5930708F0A6C0811542E5940752
:101F900050F4C11581E5D80708F471C0DC2FCC27B7
:101FA000C16FD06A50C0982F969596959E01237068
:101FB0003327C115D34508F07FC0C1E0D0E002C08F
:101FC000CC0FDD1F2A95E2F720E2929FC001112479
:101FD000C82BD92B6FC0C11589E5D807A8F4C11546
:101FE00098E5D90708F07CC0C11526E5D20708F0AE
:101FF0009ECF8C2F0E941E11C82FD0E0DC2FCC2743
:10200000CC27DF71D0621FC0C1153AE5D30708F4B1
:102010006CC0CE0190568115904208F088CF8D2F6C
:102020008F710E941E1190E0982F882788279F713A
:102030009C012C2BE901E6CFC55AD0E0C158DE4FF8
:10204000C881D0E0D064CE01DF91CF910895C85A05
:10205000D0E0CC0FDD1FCF5ADE4F0990D881C02DC4
:10206000D464F1CFCE019927D3FF03C0EC01D86C23
:10207000EACFEC01D06CE7CFDF70D06AE4CFCE01BD
:10208000E4E096958795EA95E1F783702C2F2695E5
:102090002695237090E2299F90011124382B8C2FD4
:1020A0008370C1E0D0E002C0CC0FDD1F8A95E2F75B
:1020B000C22BD32BDC68C7CFC1E0D0E002C0CC0F6D
:1020C000DD1F2A95E2F730E2939FC0011124C82B4F
:1020D000D92BDA68B8CFD82FCC27C46FD06AB3CF4A
:1020E000DC2FCC27C06FD06AAECF8C2F8F700E94B0
:1020F0001E1134E0D695C7953A95E1F7CF709C2F25
:10210000EC01D069A0CF0E94540F0C94700F82385C
:102110009105B1F1B0F48133910509F475C048F42B
:102120008932910509F469C08A32910509F473C0B6
:1021300008958533910509F459C08933910501F15A
:102140000895833E9105A9F138F4803E9105F9F098
:10215000823E910549F10895863E9105A9F1873E99
:102160009105C9F1843E910519F52091300321FFB5
:102170001FC080912F0384FD14C087EE90E0089566
:1021800020912F032370A1F080EE90E0089520911C
:102190002F0320FD47C03091300330FF09C024FFDA
:1021A00044C090E080E004C020912F0322FDF7CFCF
:1021B000089520912F0322FD3BC03091300330FD64
:1021C000E3CF24FFF5CFEDCF20912F0323FFF0CFF6
:1021D00024FDE7CFD2CF20912F0323FD2CC03091D7
:1021E000300331FFEECF84EE90E0089520912F036D
:1021F00025FFDECF89E290E0089520912F0325FF8F
:10220000D7CF85E390E0089520912F0326FFD0CF0C
:102210008AE290E0089520912F0326FFC9CF81E341
:1022200090E0089589E390E0089583EE90E00895AA
:1022300082EE90E0089586EE90E0089590912F034D
:1022400092FF06C0282F28712830F9F4877F846018
:1022500093FF06C0282F28712831F1F4877E84610E
:102260002091300320FF06C0382F38713830D9F460
:10227000877F816021FF06C0282F28712831D1F483
:10228000877E816194FD877E0895282F24712430F4
:10229000F9F68B7F8860DCCF282F2471243101F779
:1022A0008B7E8861DDCF382F3171313019F78E7F09
:1022B0008860E0CF282F2171213121F78E7E88613F
:1022C000E1CF80E008950C94CF0D0E946D128FE352
:1022D0009CE90197F1F700C000000E946D1280E0B8
:1022E0000E94A51180FF04C00E9463110C94971CEA
:1022F00008950C9465110E94D50D811102C00E94B1
:102300007A0E0E94E00D80930B020E94E80D9093DC
:10231000300380932F030E9479110E94E40D682FEF
:1023200070E090E080E00E949C0760919E017091B7
:102330009F018091A0019091A1010C94D60708956E
:102340000C949F1108950C94A211E82FF0E0EA5C20
:10235000FC4F80810895089580EA8A95F1F70895E9
:1023600000C008950C94AC11F894E82FE295EF703A
:10237000F0E031A1282F2F7081E090E001C0880F9C
:102380002A95EAF7982F9095932391A392A1892BF0
:1023900082A378940895CF93DF93C6E8D1E0899122
:1023A0008F3F11F00E94B41181E0CB38D807B9F704
:1023B00080E60E94B41181E60E94B41182E60E9478
:1023C000B41183E6DF91CF910C94B411CF92DF92D8
:1023D000EF92FF920F931F93CF93DF93EC01D62ED2
:1023E000062F10E0C8018A579E4F7C01FC018081B6
:1023F0008F3F09F44BC0F894E82FE295EF70F0E0BE
:1024000091A18F7021E030E001C0220F8A95EAF798
:10241000892F822B81A382A12095282322A378943F
:102420000E94B011E2E8F1E030E020E0C12C51E080
:1024300041914F3FA1F1A42FA295AF70B0E09096CB
:102440008C9190E04F7002C0959587954A95E2F780
:1024500080FD25C0852F022E01C0880F0A94EAF75F
:10246000C82A2F5F3F4F2430310511F7F7018081D3
:102470008F3F11F00E94B41161E0C11001C060E013
:102480008D2D0E94B211C00FD11FC882DF91CF9154
:102490001F910F91FF90EF90DF90CF90089580E013
:1024A000DFCF0E94CB11A1E3B3E01C92E6E3F3E09F
:1024B000108211961C921197118212961C921297FB
:1024C000128213961C921397138214961C921482F4
:1024D00085E00E94B4120C94EF02FF920F931F93B9
:1024E000CF93DF9300D000D00F92CDB7DEB78E012F
:1024F0000F5F1F4F85E0F80111928A95E9F7F12CE3
:102500006F2DC8010E94E611F394F5E0FF12F8CF99
:1025100045E050E0B80181E393E00E94E71FFF240B
:10252000F394009709F4F12C892B41F085E0F80130
:10253000A1E3B3E001900D928A95E1F72F2D45E0DC
:1025400066E373E081E393E00E94B5120E94F50216
:102550008F2D0F900F900F900F900F90DF91CF91D4
:102560001F910F91FF9008950895FF920F931F936D
:10257000CF93DF93F82E092F162FD72FC42F2223A6
:1025800049F081E080930E020E944C1C90930D0252
:1025900080930C0280910E028823A1F080910C029E
:1025A00090910D020E94641C059760F0EF2DF02FB2
:1025B000A12FBD2FCE0FDF2FD11DEC17FD0741F44A
:1025C00010920E02DF91CF911F910F91FF9008950D
:1025D00081918D93F2CF0E94C91B0E94B11C0E9471
:1025E000C21C0E94E21C0E94A90EFBCF8091150222
:1025F00080FF12C060910E0185E0689FB001112438
:10260000759567957595679560387105A8F561159D
:102610007105A1F1862F089581FF09C060910E0117
:1026200085E0689FB001112475956795EDCF6091A5
:102630000E0182FD0AC0809114028823D1F090918E
:102640000D0160910E01891728F085E0689FB001A7
:102650001124DACF869FB001112485E0869F900176
:10266000879F300D1124692F70E0C9010E94B91FA6
:10267000CBCF65E070E0CECF8FE7089581E008957D
:102680008091150280FF0CC060910A0170E0759581
:102690006795759567956115710549F1862F0895C0
:1026A00081FF06C060910A0170E075956795F3CFD0
:1026B00060910A0182FD0BC0909113029923A1F051
:1026C0006091090180910A01961738F0682F70E037
:1026D0006038710500F38FE70895899FC0011124C8
:1026E00070E00E94B91FF4CF61E070E0D7CF81E0C5
:1026F00008958D3E31F40E94F6128195809319025F
:1027000008958E3E19F40E94F612F8CF8F3E31F4F0
:102710000E94F6128195809318020895803F19F463
:102720000E94F612F8CF893F29F40E94401380934B
:102730001A0208958A3F21F40E9440138195F7CF31
:102740008B3F31F40E944013819580931B020895C2
:102750008C3F19F40E944013F8CF9FE0980F9830F7
:1027600070F4815F990B21E030E001C0220F8A955F
:10277000EAF780911702822B8093170208958D3F0C
:1027800031F48091150281608093150208958E3F87
:1027900021F4809115028260F7CF8F3FB9F78091C5
:1027A00015028460F1CF409118028D3E59F480915A
:1027B000190287FF0DC01092190241110BC010922F
:1027C000140208C08E3E81F48091190218169CF301
:1027D000442381F080911A0290911B02892B09F009
:1027E0005AC01092130208958F3E49F447FFF0CF6C
:1027F00010921802809119028111ECCFE0CF803F36
:1028000019F41416ACF3E4CF90911A02893F29F41D
:102810001916F4F610921A02DBCF8A3F19F497FFCB
:10282000D7CFF8CF90911B028B3F29F497FFD0CFE1
:1028300010921B02CDCF8C3F19F41916CCF3C8CFE0
:102840009FE0980F983090F4815F990B21E030E081
:10285000B90102C0660F771F8A95E2F7CB01809518
:1028600090911702892380931702B2CF8D3F31F4E4
:10287000809115028E7F80931502AACF8E3F21F49E
:10288000809115028D7FF7CF8F3F09F0A1CF809106
:1028900015028B7FF0CF08950E944C1C9C019091F3
:1028A000180280911902982B21F030931202209384
:1028B000110290911A0280911B02982B21F0309303
:1028C000100220930F0286E192E00C943C1BEF92E1
:1028D000FF920F931F93CF93DF9300D000D000D0CF
:1028E000CDB7DEB786E0E6E1F2E0DE0111960190B9
:1028F0000D928A95E1F7E0901802F090190200918C
:102900001A0210911B0210921802109219021092D2
:102910001A0210921B028E2D8F2991F080911102C4
:10292000909112020E94641CAC01909114029923B0
:1029300009F43FC080910F018417150608F447C0C1
:10294000802F812B91F080910F02909110020E94B4
:10295000641CAC0190911302992309F477C0809113
:102960000B018417150608F47FC08091180290911E
:102970001902892B90911A02892B90911B02892BA5
:1029800011F00E944C1486E0FE013196A6E1B2E0FF
:1029900001900D928A95E1F726960FB6F894DEBF66
:1029A0000FBECDBFDF91CF911F910F91FF90EF90A0
:1029B0000895209110018AE0289F90011124241786
:1029C000350708F0BDCF9F5F9093140202C09F3F70
:1029D000D1F7EE2059F00E94F6129FEF1E140CF46E
:1029E00091E0899F802D112480931802FF2059F0D7
:1029F0000E94F6129FEF1F140CF491E0899F802D26
:102A000011248093190230911802332309F498CFCE
:102A100020911902222309F493CF45EB3403C0011E
:102A20001124992359F09093180245EB2403900147
:102A30001124332339F03093190282CF81E080933F
:102A40001802F3CF81E0809319027ACF20910C0114
:102A50008AE0289F900111242417350708F085CFBC
:102A60009F5F9093130202C09F3FD1F7002359F05C
:102A70000E9440139FEF10160CF491E0899F802D67
:102A8000112480931A02112359F00E9440139FEFE2
:102A900011160CF491E0899F802D112480931B0264
:102AA00030911A02332309F460CF20911B022223B4
:102AB00009F45BCF45EB3403C0011124992359F08D
:102AC00090931A0245EB240390011124332339F02B
:102AD00030931B024ACF81E080931A02F3CF81E04A
:102AE00080931B0242CF86E0E6E1F2E0DF011D9217
:102AF0008A95E9F7109214021092130210921502AF
:102B000008950F931F93CF93DF93C42FD22FFC010F
:102B100082818823C9F040931E020E944C1C90932E
:102B20001D0280931C0280E28C0F883008F050C098
:102B3000C77081E001C0880FCA95EAF7DF91CF9195
:102B40001F910F910C94B90410911E02141335C0FB
:102B500080911C0290911D020E94641C883C91058A
:102B600060F5C0E2CD0F1D17B9F080E2810F88300B
:102B700040F4177081E001C0880F1A95EAF70E94AF
:102B8000C004C83048F481E09D2F977001C0880FC1
:102B90009A95EAF70E94B904802F0E94B104C830C8
:102BA000B8F4D77081E001C0880FDA95EAF7DF91B9
:102BB000CF911F910F910C94C00480E28C0F88304C
:102BC00038F4C77081E001C0880FCA95EAF7EFCFEB
:102BD000DF91CF911F910F9108950F939C01CB012D
:102BE000243F4CE5340759F1A8F4293DFCE53F07A3
:102BF00001F12A3D4CE53407D1F1283D3C4591F4E3
:102C000006E221EE41EE68ED7CE50E94811580E050
:102C10000F910895263FFCE53F07E9F0B0F0273F0C
:102C20003C45F9F0FC018281882339F110921E02A3
:102C3000EFCF07E225EE45EE69ED7CE5E6CF06E253
:102C400021EE40EE64EF7CE5E0CF07E225EE44EEB6
:102C500065EF7CE5DACF06E221EE42EE66EF7CE539
:102C6000D4CF07E225EE46EE67EF7CE5CECF08E253
:102C700021E045EE6AED7CE5C8CF81E0C9CFCF9376
:102C8000DF93EC01FB018281882309F419C1C23072
:102C9000FCE5DF07C0F1C6319CE5D90730F09E01A5
:102CA0002B5F3C452930310570F50E94E80D90936B
:102CB000300380932F03C031ECE5DE0709F4CFC069
:102CC00008F05BC0C8308CE5D80709F4B6C088F5B9
:102CD000C430ECE5DE0709F4A8C0C0F4C2308CE5CE
:102CE000D80709F49CC080912F038260C330DC4573
:102CF00009F498C080912F03909130030E94F60D43
:102D00000E94390780E0DF91CF91089580912F03D1
:102D10008061C630ECE5DE0709F484C080912F03A2
:102D20008860C730DC4508F47DC080912F03806245
:102D300079C0CC308CE5D80709F489C070F4809153
:102D40002F038C60CA30ECE5DE0709F46BC008F491
:102D500078C080912F038E7F65C0CE308CE5D80778
:102D600009F479C080912F038B7FCF30DC4508F4C4
:102D700059C080912F038F7E55C0CC3FECE5DE0714
:102D800009F457C030F5C3318CE5D80709F46FC09A
:102D900078F4C131ECE5DE0709F465C0C231DC45E9
:102DA00009F0A8CF0E94390780912F038F773AC08E
:102DB000C5318CE5D80709F462C008F476C080916B
:102DC00030038160CB3FDC4509F094CF8093300322
:102DD00091CFC115FDE5DF0709F44DC088F480915E
:102DE00030038D7FCE3F9CE5D90781F3809130037E
:102DF0008E7FCF3FDC4550F3809130038360E6CF78
:102E0000C230FDE5DF0709F459C008F444C080E092
:102E1000C330DD4509F06ECF0E947C0E6BCF8091F0
:102E20002F03816080932F0365CF80912F038460EF
:102E3000F9CF809130038260C9CF80912F038064E5
:102E4000F1CF0E94390780912F038068EBCF8091EA
:102E50002F038D7FE7CF80912F03877FE3CF809172
:102E60002F038F7DDFCF80912F038F7BDBCF80916E
:102E70002F03837FD7CF809130038C7FA7CF8091A2
:102E80002F0382FB992790F921E0922790FB82F98A
:102E900090FB83F9C7CF80913003982F9095917064
:102EA0008E7F892B90FB81F991CF0E9439079091F9
:102EB0002F03892F97FB87F98058B4CF81E0ACCFDF
:102EC00081E021CFCF93DF93EB0186319C4511F553
:102ED0000E94120D9A81992399F08A7A91E009F45F
:102EE00090E090931F02811109C089E20E94CC0CEE
:102EF0000E94620D80E0DF91CF91089585E3F6CFC7
:102F000080911F02811104C089E20E94D30CF0CF8E
:102F100085E3FBCF81E0EFCF08950F931F93CF930D
:102F2000DF9380918B02E09120021CE081111AC096
:102F3000DF91CF911F910F91089501E00E0F009343
:102F40002002CE2FD0E0E19FF0011124E55DFD4F7E
:102F500083819481892B29F08081918189238F3FFE
:102F6000E9F4E02F80918B02E81738F310928B027E
:102F700010922002DDCF18968D919C918F3F98077B
:102F8000D1F061E00E948C171C9FF0011D9FF00D95
:102F90001124E55DFD4F14821382E3CF1C9FD00105
:102FA0001D9FB00D1124A55DBD4F16968D919C916E
:102FB0001797892B01F320813181428153816481EC
:102FC0007581868197810E942C0CDECF10928D0234
:102FD00010928C022091120130911301E0E0F1E097
:102FE00090E080E02817390709F4089545814111E0
:102FF00002C01482168201963796F4CFDC016091EC
:10300000290280912A02962F891301C00895292F41
:1030100030E0F901EE0FFF1FEF5DFD4F4081518160
:103020004A175B07A1F487E08A9FA0018B9F500D90
:10303000112440505F4F81E0FA0184839613E6CF5C
:103040002F5F3F4F237033272093290208952F5F6E
:103050003F4F922F9370D8CF7F928F929F92AF92D3
:10306000BF92CF92DF92EF92FF920F931F93CF9375
:10307000DF93EB012C81211165C070908B02ABE2D4
:10308000B2E030E020E0812C61E070E0271508F02C
:1030900042C01A96CD90DC901B97A880B9804FEF64
:1030A0005FEF912CE92CF12CF701EE0FFF1FEA0DD9
:1030B000FB1D05911491C016D10609F4A701012B3F
:1030C00011F09394EFCF4F3F5407C1F1FB0102C0C1
:1030D000EE0FFF1F4A95E2F78E2AAB0102C0440FA4
:1030E000551F9A94E2F7415051098416150611F5BF
:1030F0004A815B816CE0629FF001639FF00D1124B7
:10310000E55DFD4F578346832EEF20832183918712
:10311000808721E02D83DF91CF911F910F91FF9048
:10312000EF90DF90CF90BF90AF909F908F907F9067
:103130000C94FE1714961C921E9213972F5F3F4F0C
:103140001C96A4CFDF91CF911F910F91FF90EF902C
:10315000DF90CF90BF90AF909F908F907F90089519
:103160001F93CF93DF93C091290217E080912A0229
:103170008C1307C00E948D17DF91CF911F910C9483
:10318000E617D0E0FE01EE0FFF1FEF5DFD4F8081DF
:103190009181189FB001199F700D112460507F4FCD
:1031A0000E942C182196C370E1CFEF92FF921F93DB
:1031B000CF93DF93FC012081318110E040E050E0AB
:1031C000E52FF0E0EE0FFF1FE20FF31FA591B49182
:1031D0001097B9F0FB01C081D18140E005C0AE1568
:1031E000BF0509F411E04F5FE42FF0E0EE0FFF1F81
:1031F000EC0FFD1FE590F490E114F10481F75F5F9F
:10320000DFCF112349F0451708F4CB01DF91CF91AF
:103210001F91FF90EF90089590E080E0F7CF8091AC
:103220001101882341F180918E0290918F020097C5
:1032300011F10E94641C20918C0230918D0228179C
:103240003907C8F49091290280912A02981759F001
:103250000E94B01810928D0210928C0210928F0270
:1032600010928E0208950E948D1710928F02109274
:103270008E020C94E617089510928F0210928E021F
:103280001092110180912A02809329020E94E61770
:103290000C948D178091110181110C943C1981E0DF
:1032A0008093110108952F923F924F925F926F92F7
:1032B0007F928F929F92AF92BF92CF92DF92EF92C6
:1032C000FF920F931F93CF93DF93CDB7DEB729976C
:1032D0000FB6F894DEBF0FBECDBF6C013B01FB0102
:1032E0001281883FFCE59F07F9F4112321F181E069
:1032F00080931101812F29960FB6F894DEBF0FBE7F
:10330000CDBFDF91CF911F910F91FF90EF90DF9094
:10331000CF90BF90AF909F908F907F906F905F9075
:103320004F903F902F900895893F2CE5920709F028
:103330004DC0111148C000E011E0F12CE12C1986BC
:1033400088248394912C8091120190911301E816A6
:10335000F90608F445C0F3018281882309F45EC1AF
:10336000F985FF2309F45AC10E944C1C90938F02E7
:1033700080938E0280918B02883008F591E0980F3F
:1033800090938B0298E0F301DE01119601900D926B
:103390009A95E1F72CE0829FC0011124855D9D4F35
:1033A00028E0FE013196DC0101900D922A95E1F7AB
:1033B0002FEF3FEFFC0131872087D386C28611E0D3
:1033C000F9851F2797CF0E943C1994CF8A3F9C45CF
:1033D00009F0B1CF112309F4AECF0E944A198ACF68
:1033E000F80160817181AA24AA94BA2C20E0422FAE
:1033F00050E0FA01EE0FFF1FE60FF71F8591949141
:10340000C816D90609F45A01892B11F02F5FEFCFA6
:10341000312CFFEFAF16BF0609F444C0F801448118
:1034200030901101832D411180E0F82FF1703F2E73
:10343000F80155808681F3019281992309F48DC0AA
:10344000332009F48AC0511014C0A40101C0440FF4
:10345000AA94EAF7842BF801868380918C029091DC
:103460008D02C29730F462E370E070938D02609336
:103470008C02C40102C0880F991F2A95E2F70197B8
:10348000F80126812817190669F480918E0290911F
:103490008F02009781F00E94641CC39760F021E0C6
:1034A000F8012483F985F329F9872FEFE21AF20A4C
:1034B000095F1F4F48CF2090290290E080E02091C3
:1034C0002A02221215C08017910761F3A22CB12C99
:1034D000F501EE0FFF1FEF5DFD4FF182E0826FEF10
:1034E000A61AB60A73E0A722BB24A0922A02DACF5A
:1034F000A22CB12CF501EE0FFF1FEF5DFD4F2081D7
:10350000318147E0429FC001439F900D1124BC01CF
:1035100060507F4F2B01B801C2010E94D51800975F
:10352000A9F021E0FC0124838017910709F4BACFA8
:103530002091290222120AC04816590639F4950131
:103540002F5F3F4F23703327209329023FEFA31AA9
:10355000B30A4A2D4370242EB2CF90E051101FC001
:10356000F40102C0EE0FFF1F2A95E2F79F012150E0
:1035700031092817390731F4442309F44DC0C70134
:103580000E94FE17C40101C0880FAA94EAF7982F81
:103590009095F801868189238683352C83CF9C0101
:1035A0000A2C02C0359527950A94E2F7A9014170CB
:1035B0005527BC016150710986239723892B41F55A
:1035C000452B31F1F80182819381892BE1F01B8237
:1035D0001C821D821E82FEEFF983FA830E944C1C1E
:1035E0008160582F9D838C83F801828193818F8322
:1035F000988729813A814B816D817E810E942C0CB4
:10360000F8011582BFCF60E0C7010E948C17F8CF88
:10361000F22FF1705F2EB6CF532CB4CF90912902C8
:1036200080912A02981719F00E94B018C8CE0E9403
:103630008D1710928F0210928E020E94E617BFCE55
:1036400090939502809394020895E0919402F091F2
:103650009502309721F00190F081E02D099480E0EF
:103660000895E0919402F0919502309721F0028044
:10367000F381E02D09940895E0919402F091950270
:10368000309739F022E0DC012C930480F581E02DA5
:1036900009940895209192023091930228173907D6
:1036A00071F09093930280939202E0919402F091D2
:1036B0009502309721F00680F781E02D0994089556
:1036C00020919002309191022817390771F0909360
:1036D000910280939002E0919402F09195023097CC
:1036E00021F00084F185E02D099408959C012E5F5E
:1036F0003F4FAC01485F5F4F80E02417350709F466
:103700000895F90191919F019923B9F38F5FF5CF46
:10371000662349F0FC01329608962191261729F07C
:10372000E817F907D1F780E0089581E008959C013A
:10373000FC0132969FEF80E04191461751F09F3F88
:1037400019F4411101C0982F8F5F8630A9F79F3F70
:1037500009F40895290F311D97FD3A95F901628307
:103760000895FC01329608962191261303C0DF01CB
:1037700011971C92E817F907B9F708950C94971B55
:103780000C94B11B029626E0FC0111922A95E9F7F0
:1037900008950895089508950C94CB1B8091990283
:1037A000882349F10E94CC1B80E00E9463031092A1
:1037B000960288E190E020E40FB6F894A8958093F3
:1037C00060000FBE2093600083B7817F846083BF59
:1037D00083B7816083BF7894889583B78E7F83BFDA
:1037E0000FB6F894A895809160008861809360007E
:1037F000109260000FBE08950895CF930E94CA1BD7
:103800000E946D120E94FC1BC0E08C2F0E94A5112B
:10381000811105C0CF5FC530C1F7CF91089581E018
:10382000FCCF08950C94111C0E9439070E94251B9F
:103830000E9463030C94121C1F921FB61F92112446
:103840008F939F93AF93BF9380919602811113C082
:1038500080913B0390913C03A0913D03B0913E03C6
:103860004196A11DB11D80933B0390933C03A0930F
:103870003D03B0933E03BF91AF919F918F911F90F5
:103880001FBE1F90189582E084BD93E095BD9AEF0E
:1038900097BD80936E0008952FB7F89480913B03F5
:1038A00090913C03A0913D03B0913E032FBF08953A
:1038B0002FB7F89460913B0370913C0380913D03D6
:1038C00090913E032FBF08959C014FB7F8948091CB
:1038D0003B0390913C03A0913D03B0913E034FBF49
:1038E000821B930B089578941F921FB61F92112488
:1038F0008F939F93AF93BF9380913B0390913C0331
:10390000A0913D03B0913E030196A11DB11D80938E
:103910003B0390933C03A0933D03B0933E03BF91C0
:10392000AF919F918F911F901FBE1F90189588E1B6
:1039300098E00FB6F894A895809360000FBE90931E
:103940006000A895F894D8E0CEEF28E3299320E012
:10395000299314BEFFCF089590938D0180938C011D
:1039600008950E944C1C909398028093970280E8DF
:1039700090E00FB6F89480936100909361000FBEC1
:103980000C949B0E0E949E1F539A80E0815091F4EC
:10399000539878940E94AD0E0E94C81D0E94201B6F
:1039A000FFEF20E782E0F15020408040E1F700C0C7
:1039B00000000895A895EFE9FFE03197F1F700C006
:1039C0000000E4CF80916603882309F1109266031A
:1039D0000E944C1C909398028093970280919902C8
:1039E000882341F0109299020E94141C8091990240
:1039F000811111C00E94AE1E80916C03882329F0B2
:103A000080914A0384FD0E94B30E0C946F1D809137
:103A10009902882301F10E94CE1B0E94FD1B88237E
:103A200049F1F8942AB15B9A822F8C608AB99BB1D4
:103A30003CE093279BB94FE788E391E041508040F9
:103A40009040E1F700C000008BB183278BB92AB901
:103A50005B987894089580919702909198020E94C3
:103A6000641C069708F4C2CF81E0809399020E94FB
:103A7000CE1BBCCF089580912E03089590919F0294
:103A8000981307C020919D0230919E022617370798
:103A9000A9F080939F0270939E0260939D02809391
:103AA0009A0270939C0260939B028091830384FF2F
:103AB00005C063E08AE992E00C94AA1E0895BC0157
:103AC00084E00C943E1DBC0183E00C943E1D2091CB
:103AD000830324FF03C066E00C94AA1E0895CF93CD
:103AE000DF93CAE0D0E080914A0384FF1AC080913E
:103AF000AB029091AC02981789F028E0829FC00138
:103B0000112468E083559D4F0E94A61E8091AB0250
:103B100090E001968F7099278093AB02DF91CF914F
:103B200008950E94AE1E8FE99FE00197F1F700C053
:103B300000002197C1F6F2CFCF93DF93EC01A09163
:103B4000AC02B0E0CD0101968F7099272091AB02B5
:103B5000281779F093E0AA0FBB1F9A95E1F7A355B8
:103B6000BD4F98E0FE0101900D929A95E1F7809388
:103B7000AC020E94AE1E0E946F1D88E0FE01A3EA07
:103B8000B2E001900D928A95E1F7DF91CF9108950F
:103B900084E191E00895FC01808180768032F1F427
:103BA0008181813061F484819581892BB9F483EA24
:103BB00092E0909368038093670388E008958230D1
:103BC00041F48DE293E0909368038093670381E072
:103BD00008958A3029F4838180932D0380E008952D
:103BE0008930E1F7828193818115924069F4848163
:103BF0009581892B49F481E08093A2028681978187
:103C00009093A1028093A0028FEF0895FC01809110
:103C1000A0029091A102892B61F08091A2028130D3
:103C200041F4908190932E031092A1021092A00271
:103C300008958FEF08950895FC019381933051F119
:103C400030F49130B9F09230E9F080E0089591328B
:103C5000D9F19232D1F784819581009709F445C05A
:103C6000019799F78DE191E0909368038093670342
:103C70008BE7089581ED90E090936803809367034C
:103C800082E1089586E990E090936803809367034A
:103C90008BE308958281813079F0882329F0823086
:103CA000A1F683EE90E0E8CF89E191E0909368037C
:103CB0008093670384E0089587EF90E09093680312
:103CC0008093670380E208958281882331F08130F8
:103CD00009F0BBCF81EC90E002C088EA90E09093BD
:103CE00068038093670389E0089588E991E09093E1
:103CF00068038093670380E408951F93CF93DF9355
:103D0000E82F792F162FEA01888184FF1CC02981B2
:103D100088E828272983CE010296DC012E2F372F31
:103D2000512F5E0FF90121912D939F01452F4E1BBD
:103D30001416C4F3612F0E944A011C5F1883DF919F
:103D4000CF911F9108958AE58883E5CF4AE453E037
:103D50000C947D1E43E853E00C947D1ECF93DF93BB
:103D600060916903635067FD12C080916503CCE0E8
:103D7000D0E0C81BD109C359DC4F80916403803166
:103D800008F054C0CE010E941B1E1092690380915E
:103D90001F0184FF3EC080911E018F3FD1F1C82FCB
:103DA000893008F0C8E0982F9C1B90931E019091D9
:103DB0003F0328E8922790933F038823E9F08091FE
:103DC0006703909168032091630326FFAEC0FC0156
:103DD0002C2FA0E4B3E034913D9331962150D9F7D4
:103DE0009C012F5F3F4F8FEF8C0F820F932F911D00
:103DF00090936803809367036C2F80E493E00E94A4
:103E00004A01CC5FCC3019F08FEF80931E01C09334
:103E10001F0184E199B19C7031F48150D9F710925F
:103E20006A0310926203DF91CF9108958D3209F0F9
:103E300069C0683009F0A9CF83EC80933F038AE51D
:103E400080931F01109263038881807671F0CE0108
:103E50000E94CB1D8F3FC1F4988197FD8E8190E821
:103E60009093630380931E0190CF2A8110924803A0
:103E70009981911111C01092490328E433E082E046
:103E800030936803209367039F819111EBCF9E814C
:103E9000981740F7892FE6CF953029F420936A03CD
:103EA00028E433E0EDCF963099F49B81913021F4F2
:103EB000CE010E941C1E08C09230D1F39330C1F392
:103EC0009132B1F39232A1F390E490936303C2CFA5
:103ED000983089F0993019F420936C03E1CF9A302F
:103EE00071F09B30E9F69BE490934B03909384032D
:103EF00090935703D5CF2CE633E081E0C1CF28E47F
:103F000033E0FBCF8091630387FF3FCFCE010E9458
:103F1000061E8F3F21F48EE180931F0136CF882348
:103F200009F433CF10921E0130CFDC012C2FE0E4D6
:103F3000F3E03D9131932150E1F752CFCF93DF93DE
:103F4000E9E6F0E0808188608083E99ACAE4D3E002
:103F50008BE48983A3E8B3E011968C931197E6E58F
:103F6000F3E081838AE588838C938083DF91CF910E
:103F7000089597FB072E16F4009407D077FD09D01B
:103F80000E94D31F07FC05D03EF4909581959F4F6A
:103F90000895709561957F4F0895EE0FFF1F05906E
:103FA000F491E02D0994AA1BBB1B51E107C0AA1F85
:103FB000BB1FA617B70710F0A61BB70B881F991FCA
:103FC0005A95A9F780959095BC01CD010895FB0104
:103FD000DC0104C08D910190801921F441505040C2
:103FE000C8F7881B990B0895F999FECF92BD81BD42
:103FF000F89A992780B50895A8E1B0E042E050E032
:104000000C942820262FF999FECF92BD81BDF89AF5
:10401000019700B4021639F01FBA20BD0FB6F8940C
:10402000FA9AF99A0FBE08950396272F0E9403204B
:104030000E940220252F0E940320242F0C9403208D
:104040000196272F0E9403200C940220DC01CB0153
:10405000FC01F999FECF06C0F2BDE1BDF89A319698
:1040600000B40D9241505040B8F70895F894FFCF36
:10407000FB04FB0453055305A505C10528052805C8
:10408000CC05580667066706C30628052805CC0632
:104090004807480751075107530751075107510770
:0C40A00048074807580751075107580708
:1040AC0090002900000000F2012808641E140A3256
:1040BC001E0101003B1D9C1D671D631D5F1DFF5AEA
:1040CC00E200E900EA00B500B600B700CD008301BC
:1040DC00CC008A01920194012102230224022502C0
:1040EC00260227022A02B300B4006F0070008182FE
:1040FC0083E200E900EA00B500B600B700CD00830A
:10410C0001CC008A01920194012102230224022590
:10411C0002260227022A02B300B4006F007000814D
:0C412C00828360616263313097969400DA
:00000001FF
